{
  "_format": "hh-sol-artifact-1",
  "contractName": "ToAttackAccessControlMissing",
  "sourceName": "contracts/DAY-2-AccessControl/AccessControl/ToAttackAccessControlMissing.sol",
  "abi": [
    {
      "inputs": [
        {
          "internalType": "address",
          "name": "_owner",
          "type": "address"
        }
      ],
      "stateMutability": "nonpayable",
      "type": "constructor"
    },
    {
      "inputs": [],
      "name": "donate",
      "outputs": [],
      "stateMutability": "payable",
      "type": "function"
    },
    {
      "inputs": [],
      "name": "owner",
      "outputs": [
        {
          "internalType": "address",
          "name": "",
          "type": "address"
        }
      ],
      "stateMutability": "view",
      "type": "function"
    },
    {
      "inputs": [],
      "name": "withdraw",
      "outputs": [],
      "stateMutability": "nonpayable",
      "type": "function"
    },
    {
      "stateMutability": "payable",
      "type": "receive"
    }
  ],
  "bytecode": "0x608060405234801561001057600080fd5b50604051610480380380610480833981810160405281019061003291906100db565b806000806101000a81548173ffffffffffffffffffffffffffffffffffffffff021916908373ffffffffffffffffffffffffffffffffffffffff16021790555050610108565b600080fd5b600073ffffffffffffffffffffffffffffffffffffffff82169050919050565b60006100a88261007d565b9050919050565b6100b88161009d565b81146100c357600080fd5b50565b6000815190506100d5816100af565b92915050565b6000602082840312156100f1576100f0610078565b5b60006100ff848285016100c6565b91505092915050565b610369806101176000396000f3fe6080604052600436106100385760003560e01c80633ccfd60b146100445780638da5cb5b1461005b578063ed88c68e146100865761003f565b3661003f57005b600080fd5b34801561005057600080fd5b50610059610090565b005b34801561006757600080fd5b5061007061013f565b60405161007d91906101e9565b60405180910390f35b61008e610163565b005b60003373ffffffffffffffffffffffffffffffffffffffff16476040516100b690610235565b60006040518083038185875af1925050503d80600081146100f3576040519150601f19603f3d011682016040523d82523d6000602084013e6100f8565b606091505b505090508061013c576040517f08c379a0000000000000000000000000000000000000000000000000000000008152600401610133906102a7565b60405180910390fd5b50565b60008054906101000a900473ffffffffffffffffffffffffffffffffffffffff1681565b600034116101a6576040517f08c379a000000000000000000000000000000000000000000000000000000000815260040161019d90610313565b60405180910390fd5b565b600073ffffffffffffffffffffffffffffffffffffffff82169050919050565b60006101d3826101a8565b9050919050565b6101e3816101c8565b82525050565b60006020820190506101fe60008301846101da565b92915050565b600081905092915050565b50565b600061021f600083610204565b915061022a8261020f565b600082019050919050565b600061024082610212565b9150819050919050565b600082825260208201905092915050565b7f5478204661696c65642100000000000000000000000000000000000000000000600082015250565b6000610291600a8361024a565b915061029c8261025b565b602082019050919050565b600060208201905081810360008301526102c081610284565b9050919050565b7f30206465706f736974206973206e6f7420616c6c6f7765642100000000000000600082015250565b60006102fd60198361024a565b9150610308826102c7565b602082019050919050565b6000602082019050818103600083015261032c816102f0565b905091905056fea26469706673582212204f1fc9b629bf412f858763fc9532f6c28b19b4b99e33e27fa078a1b2892e2fa064736f6c63430008130033",
  "linkReferences": {},
  "deployedLinkReferences": {}
}