{"contracts/CommonVulnerabilities/DAY-3-Randomness/Random/ToAttackRandom.sol":{"ToAttackRandom":{"abi":[{"inputs":[{"internalType":"address","name":"_owner","type":"address"}],"stateMutability":"nonpayable","type":"constructor"},{"inputs":[{"internalType":"uint256","name":"yourNumber","type":"uint256"}],"name":"claimReward","outputs":[],"stateMutability":"nonpayable","type":"function"},{"inputs":[],"name":"setNumberToFind","outputs":[],"stateMutability":"nonpayable","type":"function"},{"stateMutability":"payable","type":"receive"}],"evm":{"bytecode":{"linkReferences":{},"object":"60806040526000805534801561001457600080fd5b50604051610428380380610428833981810160405281019061003691906100e0565b80600160006101000a81548173ffffffffffffffffffffffffffffffffffffffff021916908373ffffffffffffffffffffffffffffffffffffffff1602179055505061010d565b600080fd5b600073ffffffffffffffffffffffffffffffffffffffff82169050919050565b60006100ad82610082565b9050919050565b6100bd816100a2565b81146100c857600080fd5b50565b6000815190506100da816100b4565b92915050565b6000602082840312156100f6576100f561007d565b5b6000610104848285016100cb565b91505092915050565b61030c8061011c6000396000f3fe60806040526004361061002d5760003560e01c80631674691114610039578063ae169a501461005057610034565b3661003457005b600080fd5b34801561004557600080fd5b5061004e610079565b005b34801561005c57600080fd5b50610077600480360381019061007291906101ce565b61013f565b005b600160009054906101000a900473ffffffffffffffffffffffffffffffffffffffff1673ffffffffffffffffffffffffffffffffffffffff163373ffffffffffffffffffffffffffffffffffffffff1614610109576040517f08c379a000000000000000000000000000000000000000000000000000000000815260040161010090610258565b60405180910390fd5b42444260405160200161011e93929190610299565b6040516020818303038152906040528051906020012060001c600081905550565b6000548103610190573373ffffffffffffffffffffffffffffffffffffffff166108fc479081150290604051600060405180830381858888f1935050505015801561018e573d6000803e3d6000fd5b505b50565b600080fd5b6000819050919050565b6101ab81610198565b81146101b657600080fd5b50565b6000813590506101c8816101a2565b92915050565b6000602082840312156101e4576101e3610193565b5b60006101f2848285016101b9565b91505092915050565b600082825260208201905092915050565b7f43616c6c6572206973206e6f7420746865206f776e6572000000000000000000600082015250565b60006102426017836101fb565b915061024d8261020c565b602082019050919050565b6000602082019050818103600083015261027181610235565b9050919050565b6000819050919050565b61029361028e82610198565b610278565b82525050565b60006102a58286610282565b6020820191506102b58285610282565b6020820191506102c58284610282565b60208201915081905094935050505056fea26469706673582212204e894cf7b32424d9e5afc55498acde59846e025c155387c670885c290fba23a364736f6c63430008130033","opcodes":"PUSH1 0x80 PUSH1 0x40 MSTORE PUSH1 0x0 DUP1 SSTORE CALLVALUE DUP1 ISZERO PUSH2 0x14 JUMPI PUSH1 0x0 DUP1 REVERT JUMPDEST POP PUSH1 0x40 MLOAD PUSH2 0x428 CODESIZE SUB DUP1 PUSH2 0x428 DUP4 CODECOPY DUP2 DUP2 ADD PUSH1 0x40 MSTORE DUP2 ADD SWAP1 PUSH2 0x36 SWAP2 SWAP1 PUSH2 0xE0 JUMP JUMPDEST DUP1 PUSH1 0x1 PUSH1 0x0 PUSH2 0x100 EXP DUP2 SLOAD DUP2 PUSH20 0xFFFFFFFFFFFFFFFFFFFFFFFFFFFFFFFFFFFFFFFF MUL NOT AND SWAP1 DUP4 PUSH20 0xFFFFFFFFFFFFFFFFFFFFFFFFFFFFFFFFFFFFFFFF AND MUL OR SWAP1 SSTORE POP POP PUSH2 0x10D JUMP JUMPDEST PUSH1 0x0 DUP1 REVERT JUMPDEST PUSH1 0x0 PUSH20 0xFFFFFFFFFFFFFFFFFFFFFFFFFFFFFFFFFFFFFFFF DUP3 AND SWAP1 POP SWAP2 SWAP1 POP JUMP JUMPDEST PUSH1 0x0 PUSH2 0xAD DUP3 PUSH2 0x82 JUMP JUMPDEST SWAP1 POP SWAP2 SWAP1 POP JUMP JUMPDEST PUSH2 0xBD DUP2 PUSH2 0xA2 JUMP JUMPDEST DUP2 EQ PUSH2 0xC8 JUMPI PUSH1 0x0 DUP1 REVERT JUMPDEST POP JUMP JUMPDEST PUSH1 0x0 DUP2 MLOAD SWAP1 POP PUSH2 0xDA DUP2 PUSH2 0xB4 JUMP JUMPDEST SWAP3 SWAP2 POP POP JUMP JUMPDEST PUSH1 0x0 PUSH1 0x20 DUP3 DUP5 SUB SLT ISZERO PUSH2 0xF6 JUMPI PUSH2 0xF5 PUSH2 0x7D JUMP JUMPDEST JUMPDEST PUSH1 0x0 PUSH2 0x104 DUP5 DUP3 DUP6 ADD PUSH2 0xCB JUMP JUMPDEST SWAP2 POP POP SWAP3 SWAP2 POP POP JUMP JUMPDEST PUSH2 0x30C DUP1 PUSH2 0x11C PUSH1 0x0 CODECOPY PUSH1 0x0 RETURN INVALID PUSH1 0x80 PUSH1 0x40 MSTORE PUSH1 0x4 CALLDATASIZE LT PUSH2 0x2D JUMPI PUSH1 0x0 CALLDATALOAD PUSH1 0xE0 SHR DUP1 PUSH4 0x16746911 EQ PUSH2 0x39 JUMPI DUP1 PUSH4 0xAE169A50 EQ PUSH2 0x50 JUMPI PUSH2 0x34 JUMP JUMPDEST CALLDATASIZE PUSH2 0x34 JUMPI STOP JUMPDEST PUSH1 0x0 DUP1 REVERT JUMPDEST CALLVALUE DUP1 ISZERO PUSH2 0x45 JUMPI PUSH1 0x0 DUP1 REVERT JUMPDEST POP PUSH2 0x4E PUSH2 0x79 JUMP JUMPDEST STOP JUMPDEST CALLVALUE DUP1 ISZERO PUSH2 0x5C JUMPI PUSH1 0x0 DUP1 REVERT JUMPDEST POP PUSH2 0x77 PUSH1 0x4 DUP1 CALLDATASIZE SUB DUP2 ADD SWAP1 PUSH2 0x72 SWAP2 SWAP1 PUSH2 0x1CE JUMP JUMPDEST PUSH2 0x13F JUMP JUMPDEST STOP JUMPDEST PUSH1 0x1 PUSH1 0x0 SWAP1 SLOAD SWAP1 PUSH2 0x100 EXP SWAP1 DIV PUSH20 0xFFFFFFFFFFFFFFFFFFFFFFFFFFFFFFFFFFFFFFFF AND PUSH20 0xFFFFFFFFFFFFFFFFFFFFFFFFFFFFFFFFFFFFFFFF AND CALLER PUSH20 0xFFFFFFFFFFFFFFFFFFFFFFFFFFFFFFFFFFFFFFFF AND EQ PUSH2 0x109 JUMPI PUSH1 0x40 MLOAD PUSH32 0x8C379A000000000000000000000000000000000000000000000000000000000 DUP2 MSTORE PUSH1 0x4 ADD PUSH2 0x100 SWAP1 PUSH2 0x258 JUMP JUMPDEST PUSH1 0x40 MLOAD DUP1 SWAP2 SUB SWAP1 REVERT JUMPDEST TIMESTAMP PREVRANDAO TIMESTAMP PUSH1 0x40 MLOAD PUSH1 0x20 ADD PUSH2 0x11E SWAP4 SWAP3 SWAP2 SWAP1 PUSH2 0x299 JUMP JUMPDEST PUSH1 0x40 MLOAD PUSH1 0x20 DUP2 DUP4 SUB SUB DUP2 MSTORE SWAP1 PUSH1 0x40 MSTORE DUP1 MLOAD SWAP1 PUSH1 0x20 ADD KECCAK256 PUSH1 0x0 SHR PUSH1 0x0 DUP2 SWAP1 SSTORE POP JUMP JUMPDEST PUSH1 0x0 SLOAD DUP2 SUB PUSH2 0x190 JUMPI CALLER PUSH20 0xFFFFFFFFFFFFFFFFFFFFFFFFFFFFFFFFFFFFFFFF AND PUSH2 0x8FC SELFBALANCE SWAP1 DUP2 ISZERO MUL SWAP1 PUSH1 0x40 MLOAD PUSH1 0x0 PUSH1 0x40 MLOAD DUP1 DUP4 SUB DUP2 DUP6 DUP9 DUP9 CALL SWAP4 POP POP POP POP ISZERO DUP1 ISZERO PUSH2 0x18E JUMPI RETURNDATASIZE PUSH1 0x0 DUP1 RETURNDATACOPY RETURNDATASIZE PUSH1 0x0 REVERT JUMPDEST POP JUMPDEST POP JUMP JUMPDEST PUSH1 0x0 DUP1 REVERT JUMPDEST PUSH1 0x0 DUP2 SWAP1 POP SWAP2 SWAP1 POP JUMP JUMPDEST PUSH2 0x1AB DUP2 PUSH2 0x198 JUMP JUMPDEST DUP2 EQ PUSH2 0x1B6 JUMPI PUSH1 0x0 DUP1 REVERT JUMPDEST POP JUMP JUMPDEST PUSH1 0x0 DUP2 CALLDATALOAD SWAP1 POP PUSH2 0x1C8 DUP2 PUSH2 0x1A2 JUMP JUMPDEST SWAP3 SWAP2 POP POP JUMP JUMPDEST PUSH1 0x0 PUSH1 0x20 DUP3 DUP5 SUB SLT ISZERO PUSH2 0x1E4 JUMPI PUSH2 0x1E3 PUSH2 0x193 JUMP JUMPDEST JUMPDEST PUSH1 0x0 PUSH2 0x1F2 DUP5 DUP3 DUP6 ADD PUSH2 0x1B9 JUMP JUMPDEST SWAP2 POP POP SWAP3 SWAP2 POP POP JUMP JUMPDEST PUSH1 0x0 DUP3 DUP3 MSTORE PUSH1 0x20 DUP3 ADD SWAP1 POP SWAP3 SWAP2 POP POP JUMP JUMPDEST PUSH32 0x43616C6C6572206973206E6F7420746865206F776E6572000000000000000000 PUSH1 0x0 DUP3 ADD MSTORE POP JUMP JUMPDEST PUSH1 0x0 PUSH2 0x242 PUSH1 0x17 DUP4 PUSH2 0x1FB JUMP JUMPDEST SWAP2 POP PUSH2 0x24D DUP3 PUSH2 0x20C JUMP JUMPDEST PUSH1 0x20 DUP3 ADD SWAP1 POP SWAP2 SWAP1 POP JUMP JUMPDEST PUSH1 0x0 PUSH1 0x20 DUP3 ADD SWAP1 POP DUP2 DUP2 SUB PUSH1 0x0 DUP4 ADD MSTORE PUSH2 0x271 DUP2 PUSH2 0x235 JUMP JUMPDEST SWAP1 POP SWAP2 SWAP1 POP JUMP JUMPDEST PUSH1 0x0 DUP2 SWAP1 POP SWAP2 SWAP1 POP JUMP JUMPDEST PUSH2 0x293 PUSH2 0x28E DUP3 PUSH2 0x198 JUMP JUMPDEST PUSH2 0x278 JUMP JUMPDEST DUP3 MSTORE POP POP JUMP JUMPDEST PUSH1 0x0 PUSH2 0x2A5 DUP3 DUP7 PUSH2 0x282 JUMP JUMPDEST PUSH1 0x20 DUP3 ADD SWAP2 POP PUSH2 0x2B5 DUP3 DUP6 PUSH2 0x282 JUMP JUMPDEST PUSH1 0x20 DUP3 ADD SWAP2 POP PUSH2 0x2C5 DUP3 DUP5 PUSH2 0x282 JUMP JUMPDEST PUSH1 0x20 DUP3 ADD SWAP2 POP DUP2 SWAP1 POP SWAP5 SWAP4 POP POP POP POP JUMP INVALID LOG2 PUSH5 0x6970667358 0x22 SLT KECCAK256 0x4E DUP10 0x4C 0xF7 0xB3 0x24 0x24 0xD9 0xE5 0xAF 0xC5 SLOAD SWAP9 0xAC 0xDE MSIZE DUP5 PUSH15 0x25C155387C670885C290FBA23A364 PUSH20 0x6F6C634300081300330000000000000000000000 "},"methodIdentifiers":{"claimReward(uint256)":"ae169a50","setNumberToFind()":"16746911"}}}}}