{"contracts/CommonVulnerabilities/DAY-4-Frontrunning/Frontrunning/ToAttackFrontrunning.sol":{"ToAttackFrontrunning":{"abi":[{"inputs":[],"stateMutability":"payable","type":"constructor"},{"inputs":[],"name":"rightHash","outputs":[{"internalType":"bytes32","name":"","type":"bytes32"}],"stateMutability":"view","type":"function"},{"inputs":[{"internalType":"string","name":"_yourAnswer","type":"string"}],"name":"setResponse","outputs":[],"stateMutability":"nonpayable","type":"function"},{"stateMutability":"payable","type":"receive"}],"evm":{"bytecode":{"linkReferences":{},"object":"60806040527f50617373776f726400000000000000000000000000000000000000000000000060001b6000556000600160006101000a81548160ff02191690831515021790555061063d806100556000396000f3fe60806040526004361061002d5760003560e01c806324cf44a4146100395780639f0906811461006257610034565b3661003457005b600080fd5b34801561004557600080fd5b50610060600480360381019061005b919061032f565b61008d565b005b34801561006e57600080fd5b506100776101cf565b6040516100849190610391565b60405180910390f35b8060405160200161009e919061041d565b6040516020818303038152906040526100b690610471565b600054146100f9576040517f08c379a00000000000000000000000000000000000000000000000000000000081526004016100f090610535565b60405180910390fd5b600160009054906101000a900460ff1615610149576040517f08c379a0000000000000000000000000000000000000000000000000000000008152600401610140906105a1565b60405180910390fd5b60018060006101000a81548160ff0219169083151502179055503373ffffffffffffffffffffffffffffffffffffffff1647604051610187906105f2565b60006040518083038185875af1925050503d80600081146101c4576040519150601f19603f3d011682016040523d82523d6000602084013e6101c9565b606091505b50505050565b60005481565b6000604051905090565b600080fd5b600080fd5b600080fd5b600080fd5b6000601f19601f8301169050919050565b7f4e487b7100000000000000000000000000000000000000000000000000000000600052604160045260246000fd5b61023c826101f3565b810181811067ffffffffffffffff8211171561025b5761025a610204565b5b80604052505050565b600061026e6101d5565b905061027a8282610233565b919050565b600067ffffffffffffffff82111561029a57610299610204565b5b6102a3826101f3565b9050602081019050919050565b82818337600083830152505050565b60006102d26102cd8461027f565b610264565b9050828152602081018484840111156102ee576102ed6101ee565b5b6102f98482856102b0565b509392505050565b600082601f830112610316576103156101e9565b5b81356103268482602086016102bf565b91505092915050565b600060208284031215610345576103446101df565b5b600082013567ffffffffffffffff811115610363576103626101e4565b5b61036f84828501610301565b91505092915050565b6000819050919050565b61038b81610378565b82525050565b60006020820190506103a66000830184610382565b92915050565b600081519050919050565b600081905092915050565b60005b838110156103e05780820151818401526020810190506103c5565b60008484015250505050565b60006103f7826103ac565b61040181856103b7565b93506104118185602086016103c2565b80840191505092915050565b600061042982846103ec565b915081905092915050565b600081519050919050565b6000819050602082019050919050565b600061045b8251610378565b80915050919050565b600082821b905092915050565b600061047c82610434565b826104868461043f565b90506104918161044f565b925060208210156104d1576104cc7fffffffffffffffffffffffffffffffffffffffffffffffffffffffffffffffff83602003600802610464565b831692505b5050919050565b600082825260208201905092915050565b7f57726f6e6720416e737765722100000000000000000000000000000000000000600082015250565b600061051f600d836104d8565b915061052a826104e9565b602082019050919050565b6000602082019050818103600083015261054e81610512565b9050919050565b7f416c72656164792046756e640000000000000000000000000000000000000000600082015250565b600061058b600c836104d8565b915061059682610555565b602082019050919050565b600060208201905081810360008301526105ba8161057e565b9050919050565b600081905092915050565b50565b60006105dc6000836105c1565b91506105e7826105cc565b600082019050919050565b60006105fd826105cf565b915081905091905056fea26469706673582212204ae4abc5edfd6325dbff327361e74d821be5a9b7c3d5ce334ab75a202fc926eb64736f6c63430008130033","opcodes":"PUSH1 0x80 PUSH1 0x40 MSTORE PUSH32 0x50617373776F7264000000000000000000000000000000000000000000000000 PUSH1 0x0 SHL PUSH1 0x0 SSTORE PUSH1 0x0 PUSH1 0x1 PUSH1 0x0 PUSH2 0x100 EXP DUP2 SLOAD DUP2 PUSH1 0xFF MUL NOT AND SWAP1 DUP4 ISZERO ISZERO MUL OR SWAP1 SSTORE POP PUSH2 0x63D DUP1 PUSH2 0x55 PUSH1 0x0 CODECOPY PUSH1 0x0 RETURN INVALID PUSH1 0x80 PUSH1 0x40 MSTORE PUSH1 0x4 CALLDATASIZE LT PUSH2 0x2D JUMPI PUSH1 0x0 CALLDATALOAD PUSH1 0xE0 SHR DUP1 PUSH4 0x24CF44A4 EQ PUSH2 0x39 JUMPI DUP1 PUSH4 0x9F090681 EQ PUSH2 0x62 JUMPI PUSH2 0x34 JUMP JUMPDEST CALLDATASIZE PUSH2 0x34 JUMPI STOP JUMPDEST PUSH1 0x0 DUP1 REVERT JUMPDEST CALLVALUE DUP1 ISZERO PUSH2 0x45 JUMPI PUSH1 0x0 DUP1 REVERT JUMPDEST POP PUSH2 0x60 PUSH1 0x4 DUP1 CALLDATASIZE SUB DUP2 ADD SWAP1 PUSH2 0x5B SWAP2 SWAP1 PUSH2 0x32F JUMP JUMPDEST PUSH2 0x8D JUMP JUMPDEST STOP JUMPDEST CALLVALUE DUP1 ISZERO PUSH2 0x6E JUMPI PUSH1 0x0 DUP1 REVERT JUMPDEST POP PUSH2 0x77 PUSH2 0x1CF JUMP JUMPDEST PUSH1 0x40 MLOAD PUSH2 0x84 SWAP2 SWAP1 PUSH2 0x391 JUMP JUMPDEST PUSH1 0x40 MLOAD DUP1 SWAP2 SUB SWAP1 RETURN JUMPDEST DUP1 PUSH1 0x40 MLOAD PUSH1 0x20 ADD PUSH2 0x9E SWAP2 SWAP1 PUSH2 0x41D JUMP JUMPDEST PUSH1 0x40 MLOAD PUSH1 0x20 DUP2 DUP4 SUB SUB DUP2 MSTORE SWAP1 PUSH1 0x40 MSTORE PUSH2 0xB6 SWAP1 PUSH2 0x471 JUMP JUMPDEST PUSH1 0x0 SLOAD EQ PUSH2 0xF9 JUMPI PUSH1 0x40 MLOAD PUSH32 0x8C379A000000000000000000000000000000000000000000000000000000000 DUP2 MSTORE PUSH1 0x4 ADD PUSH2 0xF0 SWAP1 PUSH2 0x535 JUMP JUMPDEST PUSH1 0x40 MLOAD DUP1 SWAP2 SUB SWAP1 REVERT JUMPDEST PUSH1 0x1 PUSH1 0x0 SWAP1 SLOAD SWAP1 PUSH2 0x100 EXP SWAP1 DIV PUSH1 0xFF AND ISZERO PUSH2 0x149 JUMPI PUSH1 0x40 MLOAD PUSH32 0x8C379A000000000000000000000000000000000000000000000000000000000 DUP2 MSTORE PUSH1 0x4 ADD PUSH2 0x140 SWAP1 PUSH2 0x5A1 JUMP JUMPDEST PUSH1 0x40 MLOAD DUP1 SWAP2 SUB SWAP1 REVERT JUMPDEST PUSH1 0x1 DUP1 PUSH1 0x0 PUSH2 0x100 EXP DUP2 SLOAD DUP2 PUSH1 0xFF MUL NOT AND SWAP1 DUP4 ISZERO ISZERO MUL OR SWAP1 SSTORE POP CALLER PUSH20 0xFFFFFFFFFFFFFFFFFFFFFFFFFFFFFFFFFFFFFFFF AND SELFBALANCE PUSH1 0x40 MLOAD PUSH2 0x187 SWAP1 PUSH2 0x5F2 JUMP JUMPDEST PUSH1 0x0 PUSH1 0x40 MLOAD DUP1 DUP4 SUB DUP2 DUP6 DUP8 GAS CALL SWAP3 POP POP POP RETURNDATASIZE DUP1 PUSH1 0x0 DUP2 EQ PUSH2 0x1C4 JUMPI PUSH1 0x40 MLOAD SWAP2 POP PUSH1 0x1F NOT PUSH1 0x3F RETURNDATASIZE ADD AND DUP3 ADD PUSH1 0x40 MSTORE RETURNDATASIZE DUP3 MSTORE RETURNDATASIZE PUSH1 0x0 PUSH1 0x20 DUP5 ADD RETURNDATACOPY PUSH2 0x1C9 JUMP JUMPDEST PUSH1 0x60 SWAP2 POP JUMPDEST POP POP POP POP JUMP JUMPDEST PUSH1 0x0 SLOAD DUP2 JUMP JUMPDEST PUSH1 0x0 PUSH1 0x40 MLOAD SWAP1 POP SWAP1 JUMP JUMPDEST PUSH1 0x0 DUP1 REVERT JUMPDEST PUSH1 0x0 DUP1 REVERT JUMPDEST PUSH1 0x0 DUP1 REVERT JUMPDEST PUSH1 0x0 DUP1 REVERT JUMPDEST PUSH1 0x0 PUSH1 0x1F NOT PUSH1 0x1F DUP4 ADD AND SWAP1 POP SWAP2 SWAP1 POP JUMP JUMPDEST PUSH32 0x4E487B7100000000000000000000000000000000000000000000000000000000 PUSH1 0x0 MSTORE PUSH1 0x41 PUSH1 0x4 MSTORE PUSH1 0x24 PUSH1 0x0 REVERT JUMPDEST PUSH2 0x23C DUP3 PUSH2 0x1F3 JUMP JUMPDEST DUP2 ADD DUP2 DUP2 LT PUSH8 0xFFFFFFFFFFFFFFFF DUP3 GT OR ISZERO PUSH2 0x25B JUMPI PUSH2 0x25A PUSH2 0x204 JUMP JUMPDEST JUMPDEST DUP1 PUSH1 0x40 MSTORE POP POP POP JUMP JUMPDEST PUSH1 0x0 PUSH2 0x26E PUSH2 0x1D5 JUMP JUMPDEST SWAP1 POP PUSH2 0x27A DUP3 DUP3 PUSH2 0x233 JUMP JUMPDEST SWAP2 SWAP1 POP JUMP JUMPDEST PUSH1 0x0 PUSH8 0xFFFFFFFFFFFFFFFF DUP3 GT ISZERO PUSH2 0x29A JUMPI PUSH2 0x299 PUSH2 0x204 JUMP JUMPDEST JUMPDEST PUSH2 0x2A3 DUP3 PUSH2 0x1F3 JUMP JUMPDEST SWAP1 POP PUSH1 0x20 DUP2 ADD SWAP1 POP SWAP2 SWAP1 POP JUMP JUMPDEST DUP3 DUP2 DUP4 CALLDATACOPY PUSH1 0x0 DUP4 DUP4 ADD MSTORE POP POP POP JUMP JUMPDEST PUSH1 0x0 PUSH2 0x2D2 PUSH2 0x2CD DUP5 PUSH2 0x27F JUMP JUMPDEST PUSH2 0x264 JUMP JUMPDEST SWAP1 POP DUP3 DUP2 MSTORE PUSH1 0x20 DUP2 ADD DUP5 DUP5 DUP5 ADD GT ISZERO PUSH2 0x2EE JUMPI PUSH2 0x2ED PUSH2 0x1EE JUMP JUMPDEST JUMPDEST PUSH2 0x2F9 DUP5 DUP3 DUP6 PUSH2 0x2B0 JUMP JUMPDEST POP SWAP4 SWAP3 POP POP POP JUMP JUMPDEST PUSH1 0x0 DUP3 PUSH1 0x1F DUP4 ADD SLT PUSH2 0x316 JUMPI PUSH2 0x315 PUSH2 0x1E9 JUMP JUMPDEST JUMPDEST DUP2 CALLDATALOAD PUSH2 0x326 DUP5 DUP3 PUSH1 0x20 DUP7 ADD PUSH2 0x2BF JUMP JUMPDEST SWAP2 POP POP SWAP3 SWAP2 POP POP JUMP JUMPDEST PUSH1 0x0 PUSH1 0x20 DUP3 DUP5 SUB SLT ISZERO PUSH2 0x345 JUMPI PUSH2 0x344 PUSH2 0x1DF JUMP JUMPDEST JUMPDEST PUSH1 0x0 DUP3 ADD CALLDATALOAD PUSH8 0xFFFFFFFFFFFFFFFF DUP2 GT ISZERO PUSH2 0x363 JUMPI PUSH2 0x362 PUSH2 0x1E4 JUMP JUMPDEST JUMPDEST PUSH2 0x36F DUP5 DUP3 DUP6 ADD PUSH2 0x301 JUMP JUMPDEST SWAP2 POP POP SWAP3 SWAP2 POP POP JUMP JUMPDEST PUSH1 0x0 DUP2 SWAP1 POP SWAP2 SWAP1 POP JUMP JUMPDEST PUSH2 0x38B DUP2 PUSH2 0x378 JUMP JUMPDEST DUP3 MSTORE POP POP JUMP JUMPDEST PUSH1 0x0 PUSH1 0x20 DUP3 ADD SWAP1 POP PUSH2 0x3A6 PUSH1 0x0 DUP4 ADD DUP5 PUSH2 0x382 JUMP JUMPDEST SWAP3 SWAP2 POP POP JUMP JUMPDEST PUSH1 0x0 DUP2 MLOAD SWAP1 POP SWAP2 SWAP1 POP JUMP JUMPDEST PUSH1 0x0 DUP2 SWAP1 POP SWAP3 SWAP2 POP POP JUMP JUMPDEST PUSH1 0x0 JUMPDEST DUP4 DUP2 LT ISZERO PUSH2 0x3E0 JUMPI DUP1 DUP3 ADD MLOAD DUP2 DUP5 ADD MSTORE PUSH1 0x20 DUP2 ADD SWAP1 POP PUSH2 0x3C5 JUMP JUMPDEST PUSH1 0x0 DUP5 DUP5 ADD MSTORE POP POP POP POP JUMP JUMPDEST PUSH1 0x0 PUSH2 0x3F7 DUP3 PUSH2 0x3AC JUMP JUMPDEST PUSH2 0x401 DUP2 DUP6 PUSH2 0x3B7 JUMP JUMPDEST SWAP4 POP PUSH2 0x411 DUP2 DUP6 PUSH1 0x20 DUP7 ADD PUSH2 0x3C2 JUMP JUMPDEST DUP1 DUP5 ADD SWAP2 POP POP SWAP3 SWAP2 POP POP JUMP JUMPDEST PUSH1 0x0 PUSH2 0x429 DUP3 DUP5 PUSH2 0x3EC JUMP JUMPDEST SWAP2 POP DUP2 SWAP1 POP SWAP3 SWAP2 POP POP JUMP JUMPDEST PUSH1 0x0 DUP2 MLOAD SWAP1 POP SWAP2 SWAP1 POP JUMP JUMPDEST PUSH1 0x0 DUP2 SWAP1 POP PUSH1 0x20 DUP3 ADD SWAP1 POP SWAP2 SWAP1 POP JUMP JUMPDEST PUSH1 0x0 PUSH2 0x45B DUP3 MLOAD PUSH2 0x378 JUMP JUMPDEST DUP1 SWAP2 POP POP SWAP2 SWAP1 POP JUMP JUMPDEST PUSH1 0x0 DUP3 DUP3 SHL SWAP1 POP SWAP3 SWAP2 POP POP JUMP JUMPDEST PUSH1 0x0 PUSH2 0x47C DUP3 PUSH2 0x434 JUMP JUMPDEST DUP3 PUSH2 0x486 DUP5 PUSH2 0x43F JUMP JUMPDEST SWAP1 POP PUSH2 0x491 DUP2 PUSH2 0x44F JUMP JUMPDEST SWAP3 POP PUSH1 0x20 DUP3 LT ISZERO PUSH2 0x4D1 JUMPI PUSH2 0x4CC PUSH32 0xFFFFFFFFFFFFFFFFFFFFFFFFFFFFFFFFFFFFFFFFFFFFFFFFFFFFFFFFFFFFFFFF DUP4 PUSH1 0x20 SUB PUSH1 0x8 MUL PUSH2 0x464 JUMP JUMPDEST DUP4 AND SWAP3 POP JUMPDEST POP POP SWAP2 SWAP1 POP JUMP JUMPDEST PUSH1 0x0 DUP3 DUP3 MSTORE PUSH1 0x20 DUP3 ADD SWAP1 POP SWAP3 SWAP2 POP POP JUMP JUMPDEST PUSH32 0x57726F6E6720416E737765722100000000000000000000000000000000000000 PUSH1 0x0 DUP3 ADD MSTORE POP JUMP JUMPDEST PUSH1 0x0 PUSH2 0x51F PUSH1 0xD DUP4 PUSH2 0x4D8 JUMP JUMPDEST SWAP2 POP PUSH2 0x52A DUP3 PUSH2 0x4E9 JUMP JUMPDEST PUSH1 0x20 DUP3 ADD SWAP1 POP SWAP2 SWAP1 POP JUMP JUMPDEST PUSH1 0x0 PUSH1 0x20 DUP3 ADD SWAP1 POP DUP2 DUP2 SUB PUSH1 0x0 DUP4 ADD MSTORE PUSH2 0x54E DUP2 PUSH2 0x512 JUMP JUMPDEST SWAP1 POP SWAP2 SWAP1 POP JUMP JUMPDEST PUSH32 0x416C72656164792046756E640000000000000000000000000000000000000000 PUSH1 0x0 DUP3 ADD MSTORE POP JUMP JUMPDEST PUSH1 0x0 PUSH2 0x58B PUSH1 0xC DUP4 PUSH2 0x4D8 JUMP JUMPDEST SWAP2 POP PUSH2 0x596 DUP3 PUSH2 0x555 JUMP JUMPDEST PUSH1 0x20 DUP3 ADD SWAP1 POP SWAP2 SWAP1 POP JUMP JUMPDEST PUSH1 0x0 PUSH1 0x20 DUP3 ADD SWAP1 POP DUP2 DUP2 SUB PUSH1 0x0 DUP4 ADD MSTORE PUSH2 0x5BA DUP2 PUSH2 0x57E JUMP JUMPDEST SWAP1 POP SWAP2 SWAP1 POP JUMP JUMPDEST PUSH1 0x0 DUP2 SWAP1 POP SWAP3 SWAP2 POP POP JUMP JUMPDEST POP JUMP JUMPDEST PUSH1 0x0 PUSH2 0x5DC PUSH1 0x0 DUP4 PUSH2 0x5C1 JUMP JUMPDEST SWAP2 POP PUSH2 0x5E7 DUP3 PUSH2 0x5CC JUMP JUMPDEST PUSH1 0x0 DUP3 ADD SWAP1 POP SWAP2 SWAP1 POP JUMP JUMPDEST PUSH1 0x0 PUSH2 0x5FD DUP3 PUSH2 0x5CF JUMP JUMPDEST SWAP2 POP DUP2 SWAP1 POP SWAP2 SWAP1 POP JUMP INVALID LOG2 PUSH5 0x6970667358 0x22 SLT KECCAK256 0x4A 0xE4 0xAB 0xC5 0xED REVERT PUSH4 0x25DBFF32 PUSH20 0x61E74D821BE5A9B7C3D5CE334AB75A202FC926EB PUSH5 0x736F6C6343 STOP ADDMOD SGT STOP CALLER "},"methodIdentifiers":{"rightHash()":"9f090681","setResponse(string)":"24cf44a4"}}}}}