{
  "_format": "hh-sol-artifact-1",
  "contractName": "TickCalculation",
  "sourceName": "contracts/DEFI/UniswapV3/CalculateTick/TickCalculation.sol",
  "abi": [
    {
      "inputs": [
        {
          "internalType": "uint160",
          "name": "sqrty",
          "type": "uint160"
        }
      ],
      "name": "calculateNewTick",
      "outputs": [
        {
          "internalType": "int24",
          "name": "",
          "type": "int24"
        },
        {
          "internalType": "int24",
          "name": "",
          "type": "int24"
        }
      ],
      "stateMutability": "pure",
      "type": "function"
    },
    {
      "inputs": [
        {
          "internalType": "int24",
          "name": "tick",
          "type": "int24"
        }
      ],
      "name": "getSqrt",
      "outputs": [
        {
          "internalType": "int160",
          "name": "",
          "type": "int160"
        }
      ],
      "stateMutability": "pure",
      "type": "function"
    }
  ],
  "bytecode": "0x608060405234801561001057600080fd5b50610a24806100206000396000f3fe608060405234801561001057600080fd5b50600436106100365760003560e01c80630e5a51801461003b5780638cd0c941146100a0575b600080fd5b61007d6004803603602081101561005157600080fd5b81019080803573ffffffffffffffffffffffffffffffffffffffff1690602001909291905050506100e8565b604051808360020b81526020018260020b81526020019250505060405180910390f35b6100cf600480360360208110156100b657600080fd5b81019080803560020b90602001909291905050506101a0565b604051808260130b815260200191505060405180910390f35b60008060006100f6846101b7565b905060006103e8600a860273ffffffffffffffffffffffffffffffffffffffff168161011e57fe5b04905060008260020b12156101665760008186039050600082870190506000610146836101b7565b90506000610153836101b7565b905081819750975050505050505061019b565b6000818603905060008287019050600061017f836101b7565b9050600061018c836101b7565b90508181975097505050505050505b915091565b6000806101ac836105b3565b905080915050919050565b60006401000276a373ffffffffffffffffffffffffffffffffffffffff168273ffffffffffffffffffffffffffffffffffffffff1610158015610239575073fffd8963efd1fc6a506488495d951d5263988d2673ffffffffffffffffffffffffffffffffffffffff168273ffffffffffffffffffffffffffffffffffffffff16105b6102ab576040517f08c379a00000000000000000000000000000000000000000000000000000000081526004018080602001828103825260018152602001807f520000000000000000000000000000000000000000000000000000000000000081525060200191505060405180910390fd5b600060208373ffffffffffffffffffffffffffffffffffffffff16901b9050600081905060006fffffffffffffffffffffffffffffffff821160071b808217915082811c92505067ffffffffffffffff821160061b808217915082811c92505063ffffffff821160051b808217915082811c92505061ffff821160041b808217915082811c92505060ff821160031b808217915082811c925050600f821160021b808217915082811c9250506003821160011b808217915082811c925050600182118082179150506080811061038957607f810383901c9150610393565b80607f0383901b91505b6000604060808303901b9050828302607f1c92508260801c80603f1b8217915083811c935050828302607f1c92508260801c80603e1b8217915083811c935050828302607f1c92508260801c80603d1b8217915083811c935050828302607f1c92508260801c80603c1b8217915083811c935050828302607f1c92508260801c80603b1b8217915083811c935050828302607f1c92508260801c80603a1b8217915083811c935050828302607f1c92508260801c8060391b8217915083811c935050828302607f1c92508260801c8060381b8217915083811c935050828302607f1c92508260801c8060371b8217915083811c935050828302607f1c92508260801c8060361b8217915083811c935050828302607f1c92508260801c8060351b8217915083811c935050828302607f1c92508260801c8060341b8217915083811c935050828302607f1c92508260801c8060331b8217915083811c935050828302607f1c92508260801c8060321b82179150506000693627a301d71055774c8582029050600060806f028f6481ab7f045a5af012a19d003aaa8303901d9050600060806fdb2df09e81959a81455e260799a0632f8401901d90508060020b8260020b146105a3578873ffffffffffffffffffffffffffffffffffffffff1661057a826105b3565b73ffffffffffffffffffffffffffffffffffffffff16111561059c578161059e565b805b6105a5565b815b975050505050505050919050565b60008060008360020b126105ca578260020b6105d2565b8260020b6000035b90507ffffffffffffffffffffffffffffffffffffffffffffffffffffffffffff2761860000360020b811115610670576040517f08c379a00000000000000000000000000000000000000000000000000000000081526004018080602001828103825260018152602001807f540000000000000000000000000000000000000000000000000000000000000081525060200191505060405180910390fd5b600080600183161415610694577001000000000000000000000000000000006106a6565b6ffffcb933bd6fad37aa2d162d1a5940015b70ffffffffffffffffffffffffffffffffff169050600060028316146106e05760806ffff97272373d413259a46990580e213a8202901c90505b600060048316146107055760806ffff2e50f5f656932ef12357cf3c7fdcc8202901c90505b6000600883161461072a5760806fffe5caca7e10e4e61c3624eaa0941cd08202901c90505b6000601083161461074f5760806fffcb9843d60f6159c9db58835c9266448202901c90505b600060208316146107745760806fff973b41fa98c081472e6896dfb254c08202901c90505b600060408316146107995760806fff2ea16466c96a3843ec78b326b528618202901c90505b600060808316146107be5760806ffe5dee046a99a2a811c461f1969c30538202901c90505b60006101008316146107e45760806ffcbe86c7900a88aedcffc83b479aa3a48202901c90505b600061020083161461080a5760806ff987a7253ac413176f2b074cf7815e548202901c90505b60006104008316146108305760806ff3392b0822b70005940c7a398e4b70f38202901c90505b60006108008316146108565760806fe7159475a2c29b7443b29c7fa6e889d98202901c90505b600061100083161461087c5760806fd097f3bdfd2022b8845ad8f792aa58258202901c90505b60006120008316146108a25760806fa9f746462d870fdf8a65dc1f90e061e58202901c90505b60006140008316146108c85760806f70d869a156d2a1b890bb3df62baf32f78202901c90505b60006180008316146108ee5760806f31be135f97d08fd981231505542fcfa68202901c90505b6000620100008316146109155760806f09aa508b5b7a84e1c677de54f3e99bc98202901c90505b60006202000083161461093b5760806e5d6af8dedb81196699c329225ee6048202901c90505b6000620400008316146109605760806d2216e584f5fa1ea926041bedfe988202901c90505b6000620800008316146109835760806b048a170391f7dc42444e8fa28202901c90505b60008460020b13156109bc57807fffffffffffffffffffffffffffffffffffffffffffffffffffffffffffffffff816109b857fe5b0490505b600064010000000082816109cc57fe5b06146109d95760016109dc565b60005b60ff16602082901c019250505091905056fea2646970667358221220c9fc0b9c7ce7ce304d73c17feeb9b7473080c511182e0c4c8e8a2ca6df2acba664736f6c63430007060033",
  "linkReferences": {},
  "deployedLinkReferences": {}
}