{
  "_format": "hh-sol-artifact-1",
  "contractName": "ToAttackRandom",
  "sourceName": "contracts/CommonVulnerabilities/DAY-3-Randomness/Random/ToAttackRandom.sol",
  "abi": [
    {
      "inputs": [
        {
          "internalType": "address",
          "name": "_owner",
          "type": "address"
        }
      ],
      "stateMutability": "nonpayable",
      "type": "constructor"
    },
    {
      "inputs": [
        {
          "internalType": "uint256",
          "name": "yourNumber",
          "type": "uint256"
        }
      ],
      "name": "claimReward",
      "outputs": [],
      "stateMutability": "nonpayable",
      "type": "function"
    },
    {
      "stateMutability": "payable",
      "type": "receive"
    }
  ],
  "bytecode": "0x60806040526000805534801561001457600080fd5b506040516103b33803806103b3833981810160405281019061003691906100e0565b80600160006101000a81548173ffffffffffffffffffffffffffffffffffffffff021916908373ffffffffffffffffffffffffffffffffffffffff1602179055505061010d565b600080fd5b600073ffffffffffffffffffffffffffffffffffffffff82169050919050565b60006100ad82610082565b9050919050565b6100bd816100a2565b81146100c857600080fd5b50565b6000815190506100da816100b4565b92915050565b6000602082840312156100f6576100f561007d565b5b6000610104848285016100cb565b91505092915050565b6102978061011c6000396000f3fe6080604052600436106100225760003560e01c8063ae169a501461002e57610029565b3661002957005b600080fd5b34801561003a57600080fd5b5061005560048036038101906100509190610159565b610057565b005b42434460405160200161006c939291906101a7565b6040516020818303038152906040528051906020012060001c60008190555060005481036100e0573373ffffffffffffffffffffffffffffffffffffffff166108fc479081150290604051600060405180830381858888f193505050501580156100da573d6000803e3d6000fd5b5061011b565b6040517f08c379a000000000000000000000000000000000000000000000000000000000815260040161011290610241565b60405180910390fd5b50565b600080fd5b6000819050919050565b61013681610123565b811461014157600080fd5b50565b6000813590506101538161012d565b92915050565b60006020828403121561016f5761016e61011e565b5b600061017d84828501610144565b91505092915050565b6000819050919050565b6101a161019c82610123565b610186565b82525050565b60006101b38286610190565b6020820191506101c38285610190565b6020820191506101d38284610190565b602082019150819050949350505050565b600082825260208201905092915050565b7f4e6f205269676874204e756d6265722100000000000000000000000000000000600082015250565b600061022b6010836101e4565b9150610236826101f5565b602082019050919050565b6000602082019050818103600083015261025a8161021e565b905091905056fea26469706673582212206f8baf89efeb33d9e187e722006a6e62d6a9df926c8c6ad7771230d75e4fdf6164736f6c63430008130033",
  "linkReferences": {},
  "deployedLinkReferences": {}
}