{
  "_format": "hh-sol-artifact-1",
  "contractName": "ToAttack",
  "sourceName": "contracts/DAY-1-Reentrancy/ToAttack.sol",
  "abi": [
    {
      "inputs": [
        {
          "internalType": "address",
          "name": "_owner",
          "type": "address"
        }
      ],
      "stateMutability": "nonpayable",
      "type": "constructor"
    },
    {
      "inputs": [
        {
          "internalType": "address",
          "name": "",
          "type": "address"
        }
      ],
      "name": "balances",
      "outputs": [
        {
          "internalType": "uint256",
          "name": "",
          "type": "uint256"
        }
      ],
      "stateMutability": "view",
      "type": "function"
    },
    {
      "inputs": [],
      "name": "deposit",
      "outputs": [],
      "stateMutability": "payable",
      "type": "function"
    },
    {
      "inputs": [],
      "name": "owner",
      "outputs": [
        {
          "internalType": "address",
          "name": "",
          "type": "address"
        }
      ],
      "stateMutability": "view",
      "type": "function"
    },
    {
      "inputs": [],
      "name": "withdraw",
      "outputs": [],
      "stateMutability": "nonpayable",
      "type": "function"
    },
    {
      "stateMutability": "payable",
      "type": "receive"
    }
  ],
  "bytecode": "0x608060405234801561001057600080fd5b50604051610734380380610734833981810160405281019061003291906100db565b806000806101000a81548173ffffffffffffffffffffffffffffffffffffffff021916908373ffffffffffffffffffffffffffffffffffffffff16021790555050610108565b600080fd5b600073ffffffffffffffffffffffffffffffffffffffff82169050919050565b60006100a88261007d565b9050919050565b6100b88161009d565b81146100c357600080fd5b50565b6000815190506100d5816100af565b92915050565b6000602082840312156100f1576100f0610078565b5b60006100ff848285016100c6565b91505092915050565b61061d806101176000396000f3fe6080604052600436106100435760003560e01c806327e235e31461004f5780633ccfd60b1461008c5780638da5cb5b146100a3578063d0e30db0146100ce5761004a565b3661004a57005b600080fd5b34801561005b57600080fd5b50610076600480360381019061007191906103ca565b6100d8565b6040516100839190610410565b60405180910390f35b34801561009857600080fd5b506100a16100f0565b005b3480156100af57600080fd5b506100b8610261565b6040516100c5919061043a565b60405180910390f35b6100d6610285565b005b60016020528060005260406000206000915090505481565b6000600160003373ffffffffffffffffffffffffffffffffffffffff1673ffffffffffffffffffffffffffffffffffffffff1681526020019081526020016000205411610172576040517f08c379a0000000000000000000000000000000000000000000000000000000008152600401610169906104b2565b60405180910390fd5b3373ffffffffffffffffffffffffffffffffffffffff16600160003373ffffffffffffffffffffffffffffffffffffffff1673ffffffffffffffffffffffffffffffffffffffff168152602001908152602001600020546040516101d590610503565b60006040518083038185875af1925050503d8060008114610212576040519150601f19603f3d011682016040523d82523d6000602084013e610217565b606091505b5050506000600160003373ffffffffffffffffffffffffffffffffffffffff1673ffffffffffffffffffffffffffffffffffffffff16815260200190815260200160002081905550565b60008054906101000a900473ffffffffffffffffffffffffffffffffffffffff1681565b600034116102c8576040517f08c379a00000000000000000000000000000000000000000000000000000000081526004016102bf90610564565b60405180910390fd5b34600160003373ffffffffffffffffffffffffffffffffffffffff1673ffffffffffffffffffffffffffffffffffffffff168152602001908152602001600020600082825461031791906105b3565b925050819055503073ffffffffffffffffffffffffffffffffffffffff166108fc349081150290604051600060405180830381858888f19350505050158015610364573d6000803e3d6000fd5b50565b600080fd5b600073ffffffffffffffffffffffffffffffffffffffff82169050919050565b60006103978261036c565b9050919050565b6103a78161038c565b81146103b257600080fd5b50565b6000813590506103c48161039e565b92915050565b6000602082840312156103e0576103df610367565b5b60006103ee848285016103b5565b91505092915050565b6000819050919050565b61040a816103f7565b82525050565b60006020820190506104256000830184610401565b92915050565b6104348161038c565b82525050565b600060208201905061044f600083018461042b565b92915050565b600082825260208201905092915050565b7f4e6f7468696e6720746f20776974686472617700000000000000000000000000600082015250565b600061049c601383610455565b91506104a782610466565b602082019050919050565b600060208201905081810360008301526104cb8161048f565b9050919050565b600081905092915050565b50565b60006104ed6000836104d2565b91506104f8826104dd565b600082019050919050565b600061050e826104e0565b9150819050919050565b7f30206465706f736974206973206e6f7420616c6c6f7765642100000000000000600082015250565b600061054e601983610455565b915061055982610518565b602082019050919050565b6000602082019050818103600083015261057d81610541565b9050919050565b7f4e487b7100000000000000000000000000000000000000000000000000000000600052601160045260246000fd5b60006105be826103f7565b91506105c9836103f7565b92508282019050808211156105e1576105e0610584565b5b9291505056fea264697066735822122084a4d4a1685dd560dea47d08a803b115bb028d9ff3d791d4567dc953109baaac64736f6c63430008130033",
  "linkReferences": {},
  "deployedLinkReferences": {}
}