{
  "_format": "hh-sol-artifact-1",
  "contractName": "ToAttack",
  "sourceName": "contracts/CommonVulnerabilities/DAY-1-Reentrancy/ToAttack.sol",
  "abi": [
    {
      "inputs": [
        {
          "internalType": "address",
          "name": "_owner",
          "type": "address"
        }
      ],
      "stateMutability": "nonpayable",
      "type": "constructor"
    },
    {
      "inputs": [
        {
          "internalType": "address",
          "name": "",
          "type": "address"
        }
      ],
      "name": "balances",
      "outputs": [
        {
          "internalType": "uint256",
          "name": "",
          "type": "uint256"
        }
      ],
      "stateMutability": "view",
      "type": "function"
    },
    {
      "inputs": [],
      "name": "deposit",
      "outputs": [],
      "stateMutability": "payable",
      "type": "function"
    },
    {
      "inputs": [],
      "name": "owner",
      "outputs": [
        {
          "internalType": "address",
          "name": "",
          "type": "address"
        }
      ],
      "stateMutability": "view",
      "type": "function"
    },
    {
      "inputs": [
        {
          "internalType": "uint256",
          "name": "amount",
          "type": "uint256"
        }
      ],
      "name": "withdraw",
      "outputs": [],
      "stateMutability": "nonpayable",
      "type": "function"
    },
    {
      "stateMutability": "payable",
      "type": "receive"
    }
  ],
  "bytecode": "0x608060405234801561001057600080fd5b50604051610769380380610769833981810160405281019061003291906100db565b806000806101000a81548173ffffffffffffffffffffffffffffffffffffffff021916908373ffffffffffffffffffffffffffffffffffffffff16021790555050610108565b600080fd5b600073ffffffffffffffffffffffffffffffffffffffff82169050919050565b60006100a88261007d565b9050919050565b6100b88161009d565b81146100c357600080fd5b50565b6000815190506100d5816100af565b92915050565b6000602082840312156100f1576100f0610078565b5b60006100ff848285016100c6565b91505092915050565b610652806101176000396000f3fe6080604052600436106100435760003560e01c806327e235e31461004f5780632e1a7d4d1461008c5780638da5cb5b146100b5578063d0e30db0146100e05761004a565b3661004a57005b600080fd5b34801561005b57600080fd5b50610076600480360381019061007191906103a6565b6100ea565b60405161008391906103ec565b60405180910390f35b34801561009857600080fd5b506100b360048036038101906100ae9190610433565b610102565b005b3480156100c157600080fd5b506100ca61023d565b6040516100d7919061046f565b60405180910390f35b6100e8610261565b005b60016020528060005260406000206000915090505481565b80600160003373ffffffffffffffffffffffffffffffffffffffff1673ffffffffffffffffffffffffffffffffffffffff168152602001908152602001600020541015610184576040517f08c379a000000000000000000000000000000000000000000000000000000000815260040161017b906104e7565b60405180910390fd5b3373ffffffffffffffffffffffffffffffffffffffff16816040516101a890610538565b60006040518083038185875af1925050503d80600081146101e5576040519150601f19603f3d011682016040523d82523d6000602084013e6101ea565b606091505b50505080600160003373ffffffffffffffffffffffffffffffffffffffff1673ffffffffffffffffffffffffffffffffffffffff1681526020019081526020016000206000828254039250508190555050565b60008054906101000a900473ffffffffffffffffffffffffffffffffffffffff1681565b600034116102a4576040517f08c379a000000000000000000000000000000000000000000000000000000000815260040161029b90610599565b60405180910390fd5b34600160003373ffffffffffffffffffffffffffffffffffffffff1673ffffffffffffffffffffffffffffffffffffffff16815260200190815260200160002060008282546102f391906105e8565b925050819055503073ffffffffffffffffffffffffffffffffffffffff166108fc349081150290604051600060405180830381858888f19350505050158015610340573d6000803e3d6000fd5b50565b600080fd5b600073ffffffffffffffffffffffffffffffffffffffff82169050919050565b600061037382610348565b9050919050565b61038381610368565b811461038e57600080fd5b50565b6000813590506103a08161037a565b92915050565b6000602082840312156103bc576103bb610343565b5b60006103ca84828501610391565b91505092915050565b6000819050919050565b6103e6816103d3565b82525050565b600060208201905061040160008301846103dd565b92915050565b610410816103d3565b811461041b57600080fd5b50565b60008135905061042d81610407565b92915050565b60006020828403121561044957610448610343565b5b60006104578482850161041e565b91505092915050565b61046981610368565b82525050565b60006020820190506104846000830184610460565b92915050565b600082825260208201905092915050565b7f4e6f7468696e6720746f20776974686472617700000000000000000000000000600082015250565b60006104d160138361048a565b91506104dc8261049b565b602082019050919050565b60006020820190508181036000830152610500816104c4565b9050919050565b600081905092915050565b50565b6000610522600083610507565b915061052d82610512565b600082019050919050565b600061054382610515565b9150819050919050565b7f30206465706f736974206973206e6f7420616c6c6f7765642100000000000000600082015250565b600061058360198361048a565b915061058e8261054d565b602082019050919050565b600060208201905081810360008301526105b281610576565b9050919050565b7f4e487b7100000000000000000000000000000000000000000000000000000000600052601160045260246000fd5b60006105f3826103d3565b91506105fe836103d3565b9250828201905080821115610616576106156105b9565b5b9291505056fea2646970667358221220ab5b11ea4ee6172d3bf6b941416c99b4109e049c731f8fc498f870f671d9b0fe64736f6c63430008130033",
  "linkReferences": {},
  "deployedLinkReferences": {}
}